:020000040000FA
:06000000DBEF12F012001C
:020006001200E6
:0800080007EF00F01200DACF4F
:10001000E4FFE2CFDAFFE9CFE4FFEACFE4FFF6CF77
:10002000E4FFF7CFE4FFF5CFE4FFF3CFE4FFF4CF35
:10003000E4FFFACFE4FF00EE00F0140EE80403E35F
:10004000EECFE4FFFBD700EE14F00E0EE80403E35E
:10005000EECFE4FFFBD7E6529EA002D0EDEC0FF00E
:10006000F2A202D035EC10F0E55200EE21F00E0EB7
:10007000E80403E3E5CFEDFFFBD700EE13F0140E29
:10008000E80403E3E5CFEDFFFBD7E5CFFAFFE5CFCB
:10009000F4FFE5CFF3FFE5CFF5FFE5CFF7FFE5CFC1
:1000A000F6FFE5CFEAFFE5CFE9FFE5CFDAFF110084
:0E00B000010046260000800000001A0000003B
:0200BE00D9CF98
:1000C000E6FFE1CFD9FF0001940508E1946BFE0E35
:1000D000DB5004E1010E0001A41502D0FF0E00D098
:1000E000E552E7CFD9FF1200D9CFE6FFE1CFD9FF24
:1000F00080B80DD080A8FED78186FD0EDBCFE9FF4A
:10010000FE0EDBCFEAFFEF2A8196010E02D0000E31
:1001100000D0E552E7CFD9FF1200D9CFE6FFE1CFFB
:10012000D9FF040EE126FC0EDBCFE6FFFD0EDBCF90
:10013000E6FFDADFE552E55200094DE0FC0EDBCFC9
:10014000E9FFFD0EDBCFEAFFEFCF09F0FB0EDBCFBF
:100150000EF0E8EC05F0FB0EDBBE056C05C0EFFF12
:10016000FE0EDBCFE6FFF2EC10F0E552D9CFE6FF52
:10017000DACFE6FFFC0EDBCFE9FFFD0EDBCFEAFFB7
:10018000EFCF14F0156A14BE156814C0E6FF15C051
:10019000E6FF6DEC0DF0E552E552E552E552090E31
:1001A0000001905D07E1010EDBCFE6FF1DEC11F0D1
:1001B000E55208D0D9CFE6FFDACFE6FF6FEC11F0B9
:1001C000E552E552010EE66E7ADFE552E76E030E68
:1001D000E7CFDBFF07D0E66A72DFE552E76E030E7A
:1001E000E7CFDBFFDBCF14F0000EE76E1418E8AEAC
:1001F00002D0143403D0E750D880145443E2FE0EEA
:10020000DBCFE6FFF2EC10F0E552FC0EDBCFE9FFAE
:10021000FD0EDBCFEAFFEF50FF081AE0D9CFE6FF73
:10022000DACFE6FFFC0EDBCFE9FFFD0EDBCFEAFF06
:10023000EFCF14F0156A14BE156814C0E6FF15C0A0
:10024000E6FF6DEC0DF0E552E552E552E55206D0C1
:100250002D0EDF6EDE52DD6E020EDB6A090E00012E
:10026000905D07E1010EDBCFE6FF1DEC11F0E552DA
:1002700008D0D9CFE6FFDACFE6FF6FEC11F0E552F8
:10028000E55222D0030EDB501FE1FE0EDBCFE6FF6E
:10029000F2EC10F0E552200EDF6EDE52DD6E020E43
:1002A000DB6A090E0001905D07E1010EDBCFE6FF7E
:1002B0001DEC11F0E55208D0D9CFE6FFDACFE6FF0A
:1002C0006FEC11F0E552E552040EE15C02E2E16AE6
:1002D000E552E16EE552E7CFD9FF1200D9CFE6FF34
:1002E000E1CFD9FF040EE126E66AE9DEE552E76ECA
:1002F000030EE7CFDBFFFC0EDBCFE6FFF2EC10F0E6
:10030000E552030EDB5005E1200EE66E1DEC11F008
:10031000E552030EDBCF14F0000EE76E1418E8AEC2
:1003200002D0143403D0E750D880145406E2FD0EF6
:10033000DBCFE6FF1DEC11F0E552D9CFE6FFDACFB7
:10034000E6FFD2DEE552E552000931E0040E146EFC
:10035000FE0EDB5014C0E7FF070B04E0E742E79E08
:10036000E806FCE1E7500001871B0D0EE66EF2EC9B
:1003700010F0E552040E146EFE0EDB5014C0E7FFC1
:10038000070B04E0E742E79EE806FCE1E7500001C6
:10039000871508E0410EE66E1DEC11F0E552010EE6
:1003A00008D005D0610EE66E1DEC11F0E552000E8E
:1003B00000D0146E040EE15C02E2E16AE552E16EE7
:1003C0001450E552E7CFD9FF1200090EE66EF2ECA9
:1003D00010F0E552200EE66E1DEC11F0E552200EF5
:1003E000E66E1DEC11F0E552200EE66E1DEC11F0EC
:1003F000E5520D0EE66EF2EC10F0E552200EE66EC0
:100400001DEC11F0E5520F0EE66EF2EC10F0E55225
:10041000200EE66E1DEC11F0E5521200D9CFE6FF7A
:10042000E1CFD9FF080EE126030EDB6A9394939681
:1004300081848196B5EC12F0000901E0FBD7090E2A
:10044000E66EF2EC10F0E552200E146E260E156EDC
:10045000166A14C0E6FF15C0E6FF16C0E6FF93EC6F
:1004600010F0E552E552E552B5EC12F0000901E05A
:10047000FBD700019051090A01E12AD2010A01E1EA
:10048000EAD10F0A01E19DD1010A01E16DD1030A10
:1004900001E13DD1010A01E104D1070A01E1ACD03B
:1004A000010A58E0030A01E066D2030EDB6A070E78
:1004B000DB680001900518E1180EE66ED950070FB1
:1004C000E66E000EDA20E66EE66A27DEE552E552B9
:1004D000E552E552070EDB50FF0805E0010EF36E12
:1004E000030EF3CFDBFFE5D7030EDB040BE180C087
:1004F000E9FF81C0EAFF020EE926000EEA22070E9C
:10050000DBCFEFFFE66AF2EC10F0E552D9CFE6FF61
:10051000DACFE6FF80C0E9FF81C0EAFF020EE926DC
:10052000000EEA22EFCF14F0156A14BE156814C04D
:10053000E6FF15C0E6FF6DEC0DF0E552E552E55221
:10054000E552D9CFE6FFDACFE6FF6FEC11F0E552C6
:10055000E5522BD2030EDB6A060EDB68020E0001A9
:10056000905D19E13C0EE66ED950060FE66E000E66
:10057000DA20E66E030EE66ED0DDE552E552E55276
:10058000E552060EDB50FF0805E0010EF36E030E88
:10059000F3CFDBFFE3D7030EDB0408E180C0E9FF04
:1005A00081C0EAFFEE52060EDBCFEFFF030EE66ED0
:1005B000F2EC10F0E552D9CFE6FFDACFE6FF80C0CB
:1005C000E9FF81C0EAFFEE52EFCF14F0156A14BEC6
:1005D000156814C0E6FF15C0E6FF6DEC0DF0E5529E
:1005E000E552E552E552D9CFE6FFDACFE6FF6FECF0
:1005F00011F0E552E552D9D1030EDB6A050EDB6836
:10060000030E0001905D19E13C0EE66ED950050F16
:10061000E66E000EDA20E66E060EE66E7EDDE55230
:10062000E552E552E552050EDB50FF0805E0010EEC
:10063000F36E030EF3CFDBFFE3D7030EDB0407E11A
:1006400080C0E9FF81C0EAFF050EDBCFEFFF060E99
:10065000E66EF2EC10F0E552D9CFE6FFDACFE6FF16
:1006600080C0E9FF81C0EAFFEFCF14F0156A14BE25
:10067000156814C0E6FF15C0E6FF6DEC0DF0E552FD
:10068000E552E552E552D9CFE6FFDACFE6FF6FEC4F
:1006900011F0E552E5520001A40E806F000E816F4B
:1006A00084D10D0EE66EF2EC10F0E552000187A544
:1006B00006D0410EE66E1DEC11F0E55205D0610E3C
:1006C000E66E1DEC11F0E552040E0001905D14E1A0
:1006D000090EE66E410EE66EE66A00DEE552E55270
:1006E000E552000908E00001A70E806F000E816F3F
:1006F0000001010E906FE8D7090EE66EF2EC10F0E3
:10070000E552410EE66E1DEC11F0E5524ED10D0E94
:10071000E66EF2EC10F0E552000187A306D0410E20
:10072000E66E1DEC11F0E55205D0610EE66E1DEC93
:1007300011F0E552050E0001905D0BE10A0EE66E28
:10074000540EE66E010EE66EC9DDE552E552E55245
:10075000F1D70A0EE66EF2EC10F0E552540EE66E9A
:100760001DEC11F0E55221D10D0EE66EF2EC10F009
:10077000E552000187A106D0410EE66E1DEC11F096
:10078000E55205D0610EE66E1DEC11F0E552060E45
:100790000001905D0BE10B0EE66E4C0EE66E020E54
:1007A000E66E9CDDE552E552E552F1D70B0EE66EA2
:1007B000F2EC10F0E5524C0EE66E1DEC11F0E55235
:1007C000F4D0070E0001905D45E10F0EE66EF2ECED
:1007D00010F0E552E66A73DCE552E76E040EE7CFEF
:1007E000DBFF040EDB5005E1200EE66E1DEC11F080
:1007F000E552040EDBCF14F0000EE76E1418E8AEDD
:1008000002D0143403D0E750D880145405E2500EBF
:10081000E66E1DEC11F0E552D950040FE66E000EA5
:10082000DA20E66E61DCE552E552000912E00001D3
:10083000906B0001916BB5EC12F0000901E0FBD761
:100840000B0EE66E46EC11F0E5520001010E886FCA
:100850000300B7D7AAD0030EDB6A040EDB68080ECC
:100860000001905D19E1640EE66ED950040FE66E4A
:10087000000EDA20E66E400EE66E4FDCE552E552E1
:10088000E552E552040EDB50FF0805E0010EF36E61
:10089000030EF3CFDBFFE3D7030EDB0403E1040E0B
:1008A000DBCF82F0400EE66EF2EC10F0E552D9CFCD
:1008B000E6FFDACFE6FF8BEC0EF0E552E552D9CF3A
:1008C000E6FFDACFE6FFD6EC0AF0E552E5526DD04E
:1008D000030EDB6A040EDB68090E0001905D19E16E
:1008E000060EE66ED950040FE66E000EDA20E66EB4
:1008F0004F0EE66E12DCE552E552E552E552040E6B
:10090000DB50FF0805E0010EF36E030EF3CFDBFFB3
:10091000E3D7030EDB0403E1040EDBCF83F04E0EBE
:10092000E66EF2EC10F0E552200EE66E1DEC11F0D2
:10093000E55221EC13F0F7EC12F0F3CF14F0F4CF02
:1009400015F0060ED89015321432E804FBE1CC0EF7
:100950000D6E0E6A14C008F015C009F002EC06F026
:1009600008C014F009C015F0300E1424E66E1DEC1A
:1009700011F0E5521AD00001906B0001916B00015B
:10098000010E926F92C093F092C094F01EDD0001B0
:1009900087510AE00D0EE66EF2EC10F0E552410EC2
:1009A000E66E1DEC11F0E55200D00001010E926FD1
:1009B00092C093F092C094F00001010E846F080E73
:1009C000E15C02E2E16AE552E16EE552E7CFD9FF70
:0209D000120013
:0E09D200019E08D0019E09AE05D0086C091EDA
:1009E000E86A0922018E09C003F008C002F0136A08
:1009F000126A8E0E046E056A6BEF06F0016AA7ECB0
:100A000006F0BFEC06F001B64FEF06F001A205D0EC
:100A100001BA4FEF06F056EF06F001BA62EF06F0AA
:100A200001A005D001B84FEF06F062EF06F001B863
:100A300056EF06F0056A7F0E0A24046EE86A052266
:100A40000F50045EE86A055A1A0E106E0A6A126A9E
:100A5000136A026A036A0C50075E0D50085A0E5062
:100A6000095A000E0A5A09E70C5007260D500822B1
:100A70000E500922000E0A2201D0128AD8900736A1
:100A8000083609360A36D89012361336023603363F
:100A9000102EE1D7095008100710D8A4128A6BEF66
:100AA00006F00F7E016AA7EC06F0BFEC06F001B677
:100AB0004FEF06F001A20AD001AA03D001BE4FEF0A
:100AC00006F001A45BEF06F058EF06F001AA05D08E
:100AD00001AC5BEF06F058EF06F001A00AD001A8C8
:100AE00008D001BE04D001A402D064EF06F068EF84
:100AF00006F0126A056A0F500A5C116E10E307C017
:100B000013F008C002F009C003F00AC010F00CC0D6
:100B100007F00DC008F00EC009F0013A09D00CC072
:100B200013F00DC002F00EC003F00FC010F0116CF6
:100B3000019E01BC018E10C004F001B097EF06F0D9
:100B40001A0E116097EF06F0046A0A6A01A408D031
:100B5000076C081E091E0A1EE86A082209220A22DA
:100B600001AC08D0136C021E031E041EE86A0222A8
:100B700003220422066A115207E00A3409320832BD
:100B800007320632112EF9D70750132608500222D9
:100B9000095003220A50042206C012F0019E04AE3E
:100BA0000BD0126C131E021E031E041EE86A1322D1
:100BB000022203220422018E04A006D0D880033230
:100BC000023213321232102A10C004F06BEF06F01A
:100BD000006A0EAEEEEF05F00E6C001E09AEF3EFEC
:100BE00005F0096C001EE9EC12F009BEFDEF05F0FE
:100BF00000AE000C096C056C000C00BEFAEF05F0AD
:100C00000188FF0C006A0EAE0BEF06F00D6C0E1E95
:100C1000E86A0E22001E09AE13EF06F0086C091EEA
:100C2000E86A0922001E9FEC12F009BE23EF06F0CD
:100C300000AE000C086C091EE86A0922046C051E4F
:100C4000E86A0522000C00BE1AEF06F00188FF0CCE
:100C5000016AA7EC06F001B632EF06F001A20AD055
:100C600001B403D07F0E096E19D0800E096E16D024
:100C7000096A14D001B0FCD7870E0A60F1D77E0E46
:100C80000A64F6D7860E0A5C04E0D89009320A2A74
:100C9000F9D701A403D0096C09AEEAD712007F0E80
:100CA0000A6EFF0E096E086E076E12007F0E01BEFF
:100CB000FF0E0A6E02D07F0E0A6E800E096E086A61
:100CC000076AF3D701AE04D0800E0A6E096AF7D71F
:100CD0000A6A096AF4D70350021013101210F8E0E0
:100CE00005BEF0D703BE0CD004500510EBE0D89041
:100CF00012361336023603360406D8A00506F2D79C
:100D00000550D4E10428D2E012AE11D07F0E1214A7
:100D100002E113A00CD0132AE86A0222032207E39F
:100D2000D880033202321332042A0428BFE0045070
:100D3000C9E013C007F002C008F00334096E0430A4
:100D40000A6E09320A9E01BE0A8E55EF06F0093678
:100D50000A3602E30184017E06E101800A6A096A1B
:100D6000086A076A12000A2803E0D88009321200D4
:100D7000D890093202E101821200018612000E367B
:100D80000F3602E3018C017E06E101880F6A0E6ACC
:100D90000D6A0C6A12000F2803E0D8800E32120090
:0A0DA000D8900E32EAE1018A120039
:060DAA00D9CFE6FFE1CF06
:100DB000D9FF020EE126FD0EDBCF14F0FE0EDBCFD5
:100DC00015F015C014F0156A1450DF6EFF0EE76EB3
:100DD000FD0EDBCF14F0FE0EDBCF15F0E75014163E
:100DE000156A010E14C0DBFF0A0EE66ECBEC12F0A2
:100DF000E552C58000EC13F0A00EE66EFBEC11F09E
:100E0000E5520009F1E100EC13F0DFCFE6FFFBEC67
:100E100011F0E55200EC13F0010EDBCFE6FFFBEC26
:100E200011F0E55200EC13F0C58200EC13F0A10EB6
:100E3000E66EFBEC11F0E55200EC13F014EC13F04D
:100E4000E76E010EE7CFDBFF00EC13F0C58AC58823
:100E500000EC13F0C58400EC13F0010EDB50146EAF
:100E6000020EE15C03E200D0E16AE552E16E14504B
:100E7000E552E7CFD9FF1200D9CFE6FFE1CFD9FF86
:100E8000020EE126FD0EDBCF14F0FE0EDBCF15F0D7
:100E900015C014F0156A1450DF6EFF0EE76EFD0EDC
:100EA000DBCF14F0FE0EDBCF15F0E7501416156AF9
:100EB000010E14C0DBFF0A0EE66ECBEC12F0E55219
:100EC000C58000EC13F0A00EE66EFBEC11F0E552CD
:100ED0000009F1E100EC13F0DFCFE6FFFBEC11F0CD
:100EE000E55200EC13F0010EDBCFE6FFFBEC11F056
:100EF000E55200EC13F0FC0EDBCFE6FFFBEC11F04B
:100F0000E55200EC13F0C58400EC13F0020EE15C36
:100F100002E2E16AE552E16EE552E7CFD9FF120045
:100F2000D9CFE6FFE1CFD9FF030EE126FD0EDBCFDF
:100F300014F0FE0EDBCF15F015C014F0156A010E8B
:100F400014C0DBFFFF0EE76EFD0EDBCF14F0FE0ECC
:100F5000DBCF15F0E7501416156A020E14C0DBFF44
:100F60000A0EE66ECBEC12F0E552C58000EC13F0F1
:100F7000A00EE66EFBEC11F0E5520009F1E100EC89
:100F800013F0010EDBCFE6FFFBEC11F0E55200ECB5
:100F900013F0020EDBCFE6FFFBEC11F0E55200ECA4
:100FA00013F0DF6ADFCF14F0080EE76E1418E8AE16
:100FB00002D0E73402D0E750145C14E2DFCF14F023
:100FC000156A14BE1568FB0EDB501424E96EFC0E86
:100FD000DB501520EA6EEF50E66EFBEC11F0E552A7
:100FE000DF2AE0D700EC13F0C58400EC13F0030E09
:100FF000E15C02E2E16AE552E16EE552E7CFD9FF3A
:101000001200D9CFE6FFE1CFD9FF0B0EE126680E23
:10101000DE6EDD6AD950020FE96EDACFEAFF480EC4
:10102000EE6E410EEE6E500EEE6EEE6E590EEE6EE0
:10103000420EEE6E4F0EEE6E540EEE6EEE6AFE0E29
:10104000DB506B080AE1510EE66E040EE66EE66AAE
:1010500013DFE552E552E55209D0710EE66E040E3B
:10106000E66EE66A09DFE552E552E552040EE66EE9
:10107000E66A9BDEE552E552146E156A14BE1568E9
:1010800014C0DEFF15C0DDFFD950020FE66E000E62
:10109000DA20E66E080EE66EE66A42DFE552E552B9
:1010A000E552E552B5EC12F0000901E0FBD70B0E5A
:1010B000E66E46EC11F0E552B5EC12F0000901E0E5
:1010C000FBD70D0EE66E46EC11F0E552B5EC12F0D2
:1010D000000901E0FBD7490EE66EF2EC10F0E55294
:1010E000D9CFE9FFDACFEAFF680EEE1801E1ED5043
:1010F00007E1FE0EDBCFE6FF1DEC11F0E55205D057
:10110000DFCFE6FF1DEC11F0E5520B0EE15C02E2D1
:0E111000E16AE552E16EE552E7CFD9FF120029
:02111E00D9CF27
:10112000E6FFE1CFD9FF080EE126FD0EDBCF08F088
:10113000FE0EDBCF09F0050E081801E1095001E1B0
:101140009DD0040E081801E1095001E17FD0030E83
:10115000081801E1095060E0020E081801E1095089
:1011600041E0010E081801E1095024E0680EDF6E2D
:10117000DE52650EDD6E6C0EF36E020EF3CFDBFFFA
:101180006C0EF36E030EF3CFDBFF6F0EF36E040EE7
:10119000F3CFDBFF770EF36E050EF3CFDBFF6F0EA1
:1011A000F36E060EF3CFDBFF720EF36E070EF3CF76
:1011B000DBFF7CD0A6C0DFFF010EA5C0DBFF020E67
:1011C000A4C0DBFFFD0EDB50E76E030EE7CFDBFFB5
:1011D000040E86C0DBFF050E85C0DBFF060EDB6A52
:1011E000070EDB6AA6C0DFFF010EA5C0DBFF020E03
:1011F000A4C0DBFFFD0EDB50E76E030EE7CFDBFF85
:10120000040EA6C0DBFF050EA5C0DBFF060EA4C0C2
:10121000DBFF070EDB6A4AD0A6C0DFFF010EA5C0C8
:10122000DBFF020EA4C0DBFFFD0EDB50E76E030EFA
:10123000E7CFDBFF040EA9C0DBFF050EA8C0DBFF74
:10124000060EA7C0DBFF070EDB6A30D0A6C0DFFFAB
:10125000010EA5C0DBFF020EA4C0DBFFFD0EDB50BC
:10126000E76E030EE7CFDBFF040E82C0DBFF050E47
:10127000DB6A060EDB6A070EDB6A18D0A6C0DFFF4A
:10128000010EA5C0DBFF020EA4C0DBFFFD0EDB508C
:10129000E76E030EE7CFDBFF040E83C0DBFF050E16
:1012A000DB6A060EDB6A070EDB6A00D0D9CFE6FFE9
:1012B000DACFE6FF8AC0E6FF8BC0E6FF90EC07F0CE
:1012C000E552E552E552E552080E00018A27000E6C
:1012D0008B23D8808B5104E7F00E8A5DFF0E8B596B
:1012E00003E38A6B8B6B04D000018E2B000E8F23DF
:1012F00000018F3504E28E510F08000E8F550AE26F
:10130000470EE66EF2EC10F0E5524D0EE66E1DEC67
:1013100011F0E552080EE15C02E2E16AE552E16E8D
:10132000E552E7CFD9FF1200000E00018A15146EB6
:10133000FF0E8B15156E15C014F0156A1450E66E6D
:10134000F80EE66E7F0EE66E3CEC07F0E552E552D5
:10135000E55200018A51E66EF90EE66E7F0EE66EEA
:101360003CEC07F0E552E552E5521200000E000198
:101370008C15146EFF0E8D15156E15C014F0156AC0
:101380001450E66EFA0EE66E7F0EE66E3CEC07F049
:10139000E552E552E55200018C51E66EFB0EE66E19
:1013A0007F0EE66E3CEC07F0E552E552E552120086
:1013B000E66AFC0EE66E7F0EE66E3CEC07F0E55248
:1013C000E552E5521E0EE66EFD0EE66E7F0EE66EEF
:1013D0003CEC07F0E552E552E5521200000E000128
:1013E0008E15146EFF0E8F15156E15C014F0156A4C
:1013F0001450E66EFE0EE66E7F0EE66E3CEC07F0D5
:10140000E552E552E55200018E51E66EE6687F0E28
:0E141000E66E3CEC07F0E552E552E5521200A4
:02141E00D9CF24
:10142000E6FFE1CFD9FF0B0EE126DF6A010EDB6A92
:10143000020EDB6A040EDB6A050EDB6A060EDB6A4F
:10144000070EDB6A080EDB6A090EDB6A0A0EDB6A2E
:10145000B5EC12F0000901E0FBD70D0EE66E46EC8C
:1014600011F0E5520001915102E0000E01D0010E91
:10147000000194150FE0D9CFE6FFDACFE6FFA4C054
:10148000E6FFA5C0E6FFA6C0E6FFB9D8146E050EBC
:10149000E15E14500001955116E0956B090EE66E61
:1014A000F2EC10F0E5521C0E146E260E156E166A44
:1014B00014C0E6FF15C0E6FF16C0E6FF93EC10F07F
:1014C000E552E552E552000196510FE0D9CFE6FF13
:1014D000DACFE6FF8BEC0EF0E552E552D9CFE6FF0E
:1014E000DACFE6FF63D8E552E552000190510FE0F4
:1014F000B5EC12F0000901E0FBD7490EE66EF2EC04
:1015000010F0E552430EE66E1DEC11F0E5520001BD
:10151000975142E0976B4F0EE66EF2EC10F0E552F9
:1015200021EC13F019EC13F0000901E0FBD7F7EC04
:1015300012F0F3CF14F0F4CF15F0060ED890153258
:101540001432E804FBE1090E14C0DBFF0A0E15C0DB
:10155000DBFFCC0E146E156A090EDBCF08F00A0E05
:10156000DBCF09F014C00DF015C00EF002EC06F050
:1015700008C085F0300E00018525E66E1DEC11F0E7
:10158000E552000183510001855D06E1010E000175
:10159000871502E07AEC0FF00B0EE15C02E2E16AE3
:1015A000E552E16EE552E7CFD9FF1200D9CFE6FF51
:1015B000E1CFD9FF0001966BB5EC12F0000901E014
:1015C000FBD7400EE66EF2EC10F0E552FD0EDBCFDD
:1015D000E6FFFE0EDBCFE6FF6FEC11F0E552E552C1
:1015E000000182510001865D06E1020E00018715AF
:1015F00002E060EC0FF0E552E7CFD9FF1200D9CF3F
:10160000E6FFE1CFD9FF0001946BB5EC12F00009C1
:1016100001E0FBD7060EE66EF2EC10F0E552FA0E92
:10162000DBCFE6FFFB0EDBCFE6FFFC0EDBCF14F0DB
:10163000156A14BE156814C0E6FF15C0E6FF6DEC10
:101640000DF0E552E552E552E552FA0EDBCFE6FF2A
:10165000FB0EDBCFE6FF6FEC11F0E552E552000127
:10166000935158E0936BB5EC12F0000901E0FBD701
:10167000030EE66EF2EC10F0E552FA0EDBCFE6FF59
:10168000FB0EDBCFE6FFFD0EDBCF14F0156A14BEB8
:10169000156814C0E6FF15C0E6FF6DEC0DF0E552CD
:1016A000E552E552E552FA0EDBCFE6FFFB0EDBCF4B
:1016B000E6FF6FEC11F0E552E552000192512AE08D
:1016C000926BB5EC12F0000901E0FBD7E66AF2EC90
:1016D00010F0E552FA0EDBCFE6FFFB0EDBCFE6FFA4
:1016E000FE0EDBCF14F0156A14BE156814C0E6FFB9
:1016F00015C0E6FF6DEC0DF0E552E552E552E552FE
:10170000FA0EDBCFE6FFFB0EDBCFE6FF6FEC11F04E
:0C171000E552E552E552E7CFD9FF120088
:04171C007E0EE66EE9
:1017200051EC12F0E552800EE66E840EE66EC3ECCC
:1017300010F0E552E55294941200D9CFE6FFE1CFC4
:10174000D9FF186A240E196E740E1A6E4A0E1B6E9B
:10175000FD0EDBCF20F0FE0EDBCF21F0020ED89085
:1017600020362136E806FBE1040ED89020362136DB
:10177000E806FBE120C008F021C009F0E9EC04F024
:1017800007C01CF008C01DF009C01EF00AC01FF001
:101790001CC00CF01DC00DF01EC00EF01FC00FF0DD
:1017A00018C007F019C008F01AC009F01BC00AF0F1
:1017B000FEEC04F007C014F008C015F009C016F0E4
:1017C0000AC017F00C6A0D6A800E0E6E3F0E0F6E87
:1017D00014C007F015C008F016C009F017C00AF0D1
:1017E00051EC05F028EC06F00950E66E87EC12F09B
:1017F000E552E552E7CFD9FF12001EEF13F0D9CF23
:10180000E6FFE1CFD9FF040EE126F40EDE6EDD6ABD
:1018100085DF020EDB6A030EDB6A020EDBCF14F0FB
:10182000030EDBCF15F0D890155004E6090E145CBA
:10183000000E15582AE2020EDBCF16F0030EDBCFA6
:1018400017F0190E1702F3CF17F01602F3CF16F0A8
:10185000F4501726DE501624146EDD501720156E36
:1018600014C0E6FF15C0E6FF68DFE552E552D00E72
:10187000E66E070EE66ECEEC0DF0E552E552020E76
:10188000DB2A030E01E3DB2AC8D7B7DF040EE15CD5
:1018900002E2E16AE552E16EE552E7CFD9FF1200BC
:1018A000D9CFE6FFE1CFD9FF040EE1260001A46BFA
:1018B000A56BA66B0001A76BA86BA96BD190070E57
:1018C000E66EA00EE66E96EC11F0E552E5529288B7
:1018D000CB0EE66EBAEC11F0E5529380FD0EE66E8B
:1018E000DBEC11F0E55241EC10F0E66A800EE66E9A
:1018F00035EC12F0E552E552E66AB00EE66E19ECF0
:1019000012F0E552E552180E946E090EC86EE66AA2
:10191000080EE66E6CEC12F0E552E5520E0EC16E4A
:10192000280EE66E94EC0FF0E552B5EC12F00009CB
:1019300001E0FBD70B0EE66E46EC11F0E552B5EC7C
:1019400012F0000901E0FBD7020EE66EF2EC10F097
:10195000E5523A0EE66E1DEC11F0E552B5EC12F0D0
:10196000000901E0FBD7050EE66EF2EC10F0E5523F
:101970003A0EE66E1DEC11F0E552B5EC12F00009DE
:1019800001E0FBD7430EE66EF2EC10F0E552430E99
:10199000E66E1DEC11F0E552B5EC12F0000901E025
:1019A000FBD74D0EE66EF2EC10F0E5524C0EE66EF3
:1019B0001DEC11F0E552D9CFE6FFDACFE6FF8BEC54
:1019C0000EF0E552E552F7EC12F0F3CF14F0F4CF3D
:1019D00015F0060ED89015321432E804FBE1020E21
:1019E00014C0DBFF030E15C0DBFFCC0E146E156AAE
:1019F000020EDBCF08F0030EDBCF09F014C00DF0B0
:101A000015C00EF002EC06F008C085F0040EE15C93
:101A100002E2E16AE552E16EE552E7CFD9FF12003A
:101A2000D9CFE6FFE1CFD9FF020EE126E80EE66E40
:101A3000030EE66ECEEC0DF0E552E55250EC0CF0E4
:101A400094EC09F0B6EC09F0D8EC09F0EEEC09F0F2
:101A5000010EDE6EDD6ADECF14F0DDCF15F0D8901A
:101A6000155004E6280E145C000E15580CE20A0E00
:101A7000E66EE66A8FEC08F0E552E552DF2A010EC9
:101A800001E3DB2AE8D70001905103E00EEC02F0FD
:101A9000FAD70001995106E0040E0001871502E013
:101AA00034EC0FF00001885102E10FEC0AF0000164
:101AB000895107E0000189070001895102E1FDEC2D
:101AC0000BF00300E0D7020EE15C02E2E16AE552AE
:101AD000E16EE552E7CFD9FF1200D9CFE6FFE1CFA3
:101AE000D9FFFD0EDBCF14F0FE0EDBCF15F00A0E92
:101AF0000D6E0E6A14C008F015C009F002EC06F075
:101B000004C014F005C015F0300E1426000E152286
:101B1000010EE76EFB0EDBCFE9FFFC0EDBCFEAFF29
:101B2000E750E926000EEA2214C0EFFFD950FD0F5E
:101B3000E96EFF0EDA20EA6E0A0E0D6E0E6AEECF27
:101B400008F0EDCF09F002EC06F008C0EEFF09C086
:101B5000EDFF300EE76EFD0EDBCF14F0FE0EDBCF97
:101B600015F0E7501426000E1522FB0EDBCFE9FF1F
:101B7000FC0EDBCFEAFF14C0EFFF020EE76EFB0E98
:101B8000DBCFE9FFFC0EDBCFEAFFE750E926000ED2
:0C1B9000EA22EF6AE552E7CFD9FF12000D
:041B9C00D9CFE6FFB8
:101BA000E1CFD9FF040EE126DE6ADD6ADECF14F054
:101BB000DDCF15F0FD0EDBCF16F0FE0EDBCF17F0FC
:101BC0001650145C1750155801E380D0020EDB6AE2
:101BD000030EDB6A020EDBCF14F0030EDBCF15F031
:101BE000D890155004E6040E145C000E155869E2F6
:101BF00000000000000000000000000000000000E5
:101C000000000000000000000000000000000000D4
:101C100000000000000000000000000000000000C4
:101C200000000000000000000000000000000000B4
:101C300000000000000000000000000000000000A4
:101C40000000000000000000000000000000000094
:101C50000000000000000000000000000000000084
:101C60000000000000000000000000000000000074
:101C70000000000000000000000000000000000064
:101C80000000000000000000000000000000000054
:101C90000000000000000000000000000000000044
:101CA0000000000000000000000000000000000034
:101CB000000000000000020EDB2A030E01E3DB2A15
:101CC00089D7DF2A010E01E3DB2A70D7040EE15C1D
:101CD00002E2E16AE552E16EE552E7CFD9FF120078
:101CE00000000000000000000000000000000000F4
:101CF000000000000000000012003C0EE66ECBEC7D
:101D000012F0E55200D01200140EE66ECBEC12F089
:061D1000E55200D01200B4
:0A1D1600D9CFE6FFE1CFD9FFE65276
:101D200000EC13F0C58000EC13F09A0EE66EFBECAD
:101D300011F0E55200EC13F0010EE66EFBEC11F031
:101D4000E55200EC13F0C58200EC13F09B0EE66E3A
:101D5000FBEC11F0E55200EC13F014EC13F0DF6E25
:101D600000EC13F0C58AC58800EC13F0C58400ECC4
:101D700013F0DFACD5D700EC13F0C58000EC13F006
:101D80009A0EE66EFBEC11F0E55200EC13F0E66AF9
:101D9000FBEC11F0E55200EC13F0C58200EC13F0FF
:101DA0009B0EE66EFBEC11F0E55200EC13F014EC28
:101DB00013F0DF6E00EC13F0C58AC58800EC13F059
:101DC000C58400EC13F0DFCF14F014342FE20A0EB8
:101DD000146E14C00EF0DFCF09F0E8EC05F00950E6
:101DE000300FE66EFD0EDBCFE9FFFE0EDBCFEAFF24
:101DF000E552E750EF6EDFCF14F014C009F00A0E81
:101E00000E6EE8EC05F00550300FE66E010EE76E41
:101E1000FD0EDBCFE9FFFE0EDBCFEAFFE750E92640
:101E2000000EEA22E552E750EF6E16D0FD0EDBCF32
:101E3000E9FFFE0EDBCFEAFF4E0EEF6E010EE76EFE
:101E4000FD0EDBCFE9FFFE0EDBCFEAFFE750E92610
:101E5000000EEA22450EEF6EDFCF86F000D0E5528D
:081E6000E552E7CFD9FF1200A3
:081E68000001996B0001A45177
:101E70000001A75D24E10001A5510001A85D1FE15B
:101E80000001A6510001A95D1AE100018795090E24
:101E9000E66EF2EC10F0E552410EE66E1DEC11F02C
:101EA000E552000189510BE1030E896F8EEC0BF0B6
:101EB000F40EE66EE66A9DEC0BF0E552E552120078
:101EC000000187930A0EE66EF2EC10F0E552540E14
:101ED000E66E1DEC11F0E5520001030E896F8EECE9
:101EE0000BF0DC0EE66E020EE66E9DEC0BF0E5529A
:101EF000E5521200000187910B0EE66EF2EC10F035
:101F0000E5524C0EE66E1DEC11F0E5520001030E99
:101F1000896F8EEC0BF0E80EE66E010EE66E9DEC1E
:081F20000BF0E552E55212003E
:081F2800D9CFE6FFDACFE6FF96
:101F3000E1CFD9FFE2CFDAFFF00E83160F0E951234
:101F40009294929692928094809680927DEC0EF07C
:101F5000F00E95162ED82DD82CD883168382808229
:101F600070EC0EF080920F0E951233D8FEE1FD0E4C
:101F7000DBCFE6FF46EC11F0E5522BD8FEE1080E70
:101F800023D827D8FEE10F0E1FD823D8FEE1010E7B
:101F90001BD81FD8FEE1060E17D81BD8FEE1E66A53
:101FA000F2EC10F0E552E552E5CFDAFFE7CFD9FFCA
:101FB00012008316030E8312808270EC0EF0809262
:101FC00084EC0EF0F00E1200E66E46EC11F0E552D5
:0A1FD0001200B5EC12F00009120037
:061FDA00E66A800EE66ECF
:101FE00035EC12F0E552E5520001A42B0001010E80
:101FF000946F3C0E0001E76EA419E8AE02D0E734FE
:1020000002D0E750A45D21E3A46BA52B0001010ED3
:10201000936F3C0E0001E76EA519E8AE02D0E734DD
:1020200002D0E750A55D11E3A56BA62B0001010EC0
:10203000926F180E0001E76EA619E8AE02D0E734E1
:1020400002D0E750A65D01E3A66B0001982B050EB8
:10205000985D06E1986B0001010E976F97C096F0AE
:102060000001010E996F9E901200F2920001880506
:1020700002E1886B05D00001902B0001010E916FE9
:082080001200D08EF28E120056
:08208800B00EF66E000EF76EBB
:10209000000EF86E00010900F5509F6F0900F55021
:1020A000A06F03E19F6701D03DD00900F5509A6F02
:1020B0000900F5509B6F0900F5509C6F090009005D
:1020C000F550E96E0900F550EA6E090009000900B3
:1020D000F5509D6F0900F5509E6F09000900F6CF7D
:1020E000A1F0F7CFA2F0F8CFA3F09AC0F6FF9BC003
:1020F000F7FF9CC0F8FF00019D5302E19E5307E0EB
:102100000900F550EE6E9D07F8E29E07F9D7A1C0D1
:10211000F6FFA2C0F7FFA3C0F8FF00019F07000E63
:06212000A05BBFD7120016
:0A212600D9CFE6FFDACFE6FFE1CFE4
:10213000D9FFE2CFDAFF1BD814E0B5EC12F00009AA
:10214000FCE115D8E66E1DEC11F0E552D950FB0FFD
:10215000E96EFF0EDA20EA6EEE2A000EEE22EE2283
:10216000EAD7E552E5CFDAFFE7CFD9FF1200FB0E41
:10217000DBCFF6FFFC0EDBCFF7FFFD0EDBCFF8FF6A
:062180000800F5501200FA
:0A218600D9CFE6FFDACFE6FFE1CF84
:10219000D9FFE2CFDAFFE652E652FC0EDBCF14F0B5
:1021A000FD0EDBCF15F0060ED89014361536E80478
:1021B000FBE114C0DEFF15C0DDFF010EDB50BE6E7B
:1021C000DF50E840E8403F0B300B146ECF0EBD14DB
:1021D0001410BD6EE552E552E552E5CFDAFFE7CFC8
:0421E000D9FF120011
:0C21E400D9CFE6FFDACFE6FFE1CFD9FF4C
:1021F000E2CFDAFFF00E95168316FD0EDB50800954
:10220000E8380F0B0F0B8312809480960FD8F00ED6
:102210008316FD0EDB500F0B831208D80F0E95129C
:10222000E552E5CFDAFFE7CFD9FF120070EC0EF0F0
:0A223000808270EC0EF08092120024
:06223A00D9CFE6FFDACF68
:10224000E6FFE1CFD9FFE2CFDAFFF00E9516831655
:10225000FD0EDB380F0B0F0B8312808680940FD896
:10226000F00E8316FD0EDB500F0B831208D80F0EF5
:102270009512E552E5CFDAFFE7CFD9FF120070ECF7
:0C2280000EF0808270EC0EF080921200D4
:04228C00D9CFE6FFC1
:10229000DACFE6FFE1CFD9FFE2CFDAFFF00E9516F5
:1022A0008316FD0EDB380F0B0F0B83128094809684
:1022B0000FD8F00E8316FD0EDB500F0B831208D8DB
:1022C0000F0E9512E552E5CFDAFFE7CFD9FF1200E6
:0E22D00070EC0EF0808270EC0EF08092120026
:0222DE00D9CF56
:1022E000E6FFDACFE6FFE1CFD9FFE2CFDAFF16D87B
:1022F0000FE0B5EC12F00009FCE110D8E66E1DEC21
:1023000011F0E552FC0EDB2AFD0EF1E3DB2AEFD7DC
:10231000E552E5CFDAFFE7CFD9FF1200FC0EDBCFA5
:0C232000E9FFFD0EDBCFEAFFEF501200DA
:04232C00D9CFE6FF20
:10233000DACFE6FFE1CFD9FFE2CFDAFFC26AFD0EC6
:10234000DB50C16EFC0EDB50380B146EFD0EDB5003
:10235000040DF350C00B1410C26EFC0EDBAE03D0A4
:102360009E9C9D8CF28CC280E552E5CFDAFFE7CFD0
:04237000D9FF12007F
:0C237400D9CFE6FFDACFE6FFE1CFD9FFBA
:10238000E2CFDAFFFD0EDB507E0BCD6EFD0EDBAC37
:1023900002D0CD8E01D0CD9ECF6ACE6A9E90DBAEAC
:1023A00002D09D8001D09D90CD80E552E5CFDAFF2F
:0623B000E7CFD9FF120087
:0A23B600D9CFE6FFDACFE6FFE1CF52
:1023C000D9FFE2CFDAFFF292FD0EDBA202D0F18C50
:1023D00001D0F19CDBA002D0F18E01D0F19E938060
:1023E000DBAE02D0F28801D0F298E552E5CFDAFFF9
:0623F000E7CFD9FF120047
:0A23F600D9CFE6FFDACFE6FFE1CF12
:10240000D9FFE2CFDAFFFD0EDB50C96EC6AE02D0B7
:10241000FF0E09D0C7B0FED700EC13F0C5AC02D058
:10242000FE0E01D0000EE552E5CFDAFFE7CFD9FF6F
:02243000120098
:0E243200D9CFE6FFDACFE6FFE1CFD9FFE2CF48
:10244000DAFFE652E652FC0EDBCFDEFFDBCFDDFF2C
:10245000010EDB50B36EDF50B26EE552E552E5522D
:0A246000E5CFDAFFE7CFD9FF120045
:06246A00D9CFE6FFDACF36
:10247000E6FFE1CFD9FFE2CFDAFFE652E652FC0EEB
:10248000DBCFDEFFDBCFDDFF010EDB50CF6EDF5099
:10249000CE6EE552E552E552E5CFDAFFE7CFD9FF40
:0224A000120028
:0E24A200D9CFE6FFDACFE6FFE1CFD9FFE2CFD8
:1024B000DAFFFD0EDB50FB0BCA6ECC6A9E92FD0E5E
:1024C000DBAE02D09D8201D09D92CA84E552E5CF59
:0824D000DAFFE7CFD9FF12008B
:0824D800D9CFE6FFDACFE6FFE1
:1024E000E1CFD9FFE2CFDAFF3F0EC716C66AC56A51
:1024F000FD0EDB50C612FC0EDB50C712948694888A
:0E250000C68AE552E5CFDAFFE7CFD9FF120019
:02250E00D9CF23
:10251000E6FFDACFE6FFE1CFD9FFE2CFDAFF0C0E1C
:10252000BD129494CA94FD0EDB50CB6ECA84E55262
:0E253000E5CFDAFFE7CFD9FF12009494120036
:02253E00056A2C
:10254000046A100EE76ED890083609360436053650
:102550000D50045C0E50055805E30D50045E0E50FE
:0A256000055A082AE72EF0D71200F2
:06256A008084809670ECF5
:102570000EF0808270EC0EF083A602D003D8010C1E
:1025800001D8000C809270EC0EF0808270EC0EF09E
:062590008092809412000D
:0A259600FF0EE350226E480E01D044
:1025A0004C0EE76EE72EFED7E76AE72EFED7222E07
:0625B000F7D70000120045
:0A25B60014EE00F024EE00F0F86AC5
:1025C000019C44EC10F003EC00F010EC0DF0FBD794
:0225D0001200F7
:0E25D200056A080EE76ED890093605360E50E1
:0E25E000055C02E3056E092AE72EF7D712000C
:0225EE00C450D7
:1025F000176E166AC3501610F36E17C0F4FF120060
:0E2600001F0EC514FDE1C750040BFAE11200D5
:02260E0000EEDC
:0C26100000F00F0EEE6AEA62FDD7120027
:04261C0041544C00D9
:0826200041544C2061205000E0
:08262800C586C7A0FED7C9500A
:02263000120096
:0A263200C250040B01E0010E12007B
:04263C00BD6A94845B
:02264000120086
:04264200C28412003C
:0A264600A4000A05010000000000D6
:102650000000000000000000010101000101000075
:00000001FF
